:1000000028C04CC0E5C14AC049C098C147C046C0DD
:1000100045C044C043C042C053C240C03FC00000BE
:10002000000036000000000037000000000038002B
:10003000020202020202020202020102040810206D
:100040002004100801020000040000000000A702C4
:10005000500511241FBECFE5D2E0DEBFCDBF10E0BA
:10006000A0E6B0E0E4ECFFE002C005900D92AA39F2
:10007000B107D9F721E0AAE9B0E001C01D92A13192
:10008000B207E1F710E0C8E2D0E003C02197FE011B
:1000900087D7C732D107D1F703D388C7B1CFAF9283
:1000A000BF92CF92DF92EF92FF920F931F93CF9365
:1000B000DF936C017B018B01040F151FEB015E01C7
:1000C000AE18BF08C017D10759F06991D601ED915C
:1000D000FC910190F081E02DC6010995892B79F7FB
:1000E000C501DF91CF911F910F91FF90EF90DF90AD
:1000F000CF90BF90AF9008952091E7003091E80035
:100100002817390771F49091E6008091E50098175F
:1001100041F0E091E600F0E0EB55FF4F808190E088
:1001200008958FEF9FEF08950895EF92FF920F9338
:100130001F93CF93DF93DC015C96ED90FC905D976D
:10014000E114F10479F481E090E013969C938E938E
:10015000129790E080E0DF91CF911F910F91FF9077
:10016000EF9008955196ED91FC91529750968C9195
:100170005097982F90950FB75E962C915E97122FFF
:10018000127021FD6095F8942081112319F1282B1C
:100190002083E7012197F1F728E0462F50E03081D6
:1001A00060FF1AC0382B3083E7012197F1F7BA01BD
:1001B00075956795215089F7112381F080818923F6
:1001C00080830FBF5C968D919C910197F1F781E040
:1001D00090E0C1CF2923DCCF3923E5CF9081892B53
:1001E000EFCF2091E7003091E8002817390769F434
:1001F0008091E5002091E60090E0805C9F4F821B9B
:10020000910960E470E0A5D6089590E080E008953B
:100210002091E7003091E80028173907B9F4909150
:10022000E6008091E500981789F0E091E600F0E0A3
:10023000EB55FF4F80812091E60030E02F5F3F4F6C
:100240002F7333272093E60090E008958FEF9FEF00
:10025000089590E080E008950F931F934FB7F894AE
:100260000091EE001091EF002091F0003091F1002C
:100270004FBFB0E0A0E0EFB7F8944091EE0050918E
:10028000EF006091F0007091F100EFBF401B510B47
:10029000620B730B481759076A077B0760F31F91BE
:1002A0000F910895379885B7877E806185BF85B7A0
:1002B000806285BF889585B78F7D85BF379A089501
:1002C000FC0101900020E9F73197AF01481B590B61
:1002D000BC0182EF90E0E3CECF93C82F8BE790E094
:1002E000EFDF69E182EF90E020DF82E990E0E8DF74
:1002F00088EC90E0B1DF8FE790E0E2DF6C2F82EFD7
:1003000090E013DF82E990E0DBDF88EC90E0A4DF8F
:10031000C2E0C7B9369A3699FECF94B185B1892724
:10032000982789271816190614F4BCDFF2CF84E841
:1003300090E0C6DF88EC90E0CF918ECF1F920F92B5
:100340000FB60F9211242F933F938F939F93AF93E8
:10035000BF938091EE009091EF00A091F000B091DA
:10036000F1003091ED0026E0230F2D3758F502966D
:10037000A11DB11D2093ED008093EE009093EF003E
:10038000A093F000B093F1008091E9009091EA0011
:10039000A091EB00B091EC000196A11DB11D8093DE
:1003A000E9009093EA00A093EB00B093EC00BF91BA
:1003B000AF919F918F913F912F910F900FBE0F9012
:1003C0001F90189529E8230F0396A11DB11DD2CFC8
:1003D0001F920F920FB60F9211242F933F934F93BA
:1003E0005F936F937F938F939F93AF93BF93EF939D
:1003F000FF93E091E700F091E800309749F0A6857F
:10040000B7858585968D91FF14C09C918923A1F4B1
:10041000FF91EF91BF91AF919F918F917F916F91DC
:100420005F914F913F912F910F900FBE0F901F90B2
:1004300018959C91892361F7A389B4899C9185893A
:10044000809589238C93868997890197F1F7608D30
:10045000718DA685B785558538E020E0CB010197E1
:10046000F1F7822F90E095958795282F4C914523A1
:1004700009F02068315091F7868D81FD209580919B
:10048000E50090E001968F7399273091E6003817C8
:1004900099F0A091E500B0E0AB55BF4F2C9380934D
:1004A000E500828D938D0197F1F7A389B4898C9132
:1004B0009589892B8C93ACCF868D8160868FF1CF07
:1004C0001F920F920FB60F9211248F9381E08093A9
:1004D00064008F910F900FBE0F901F90189590E0C1
:1004E000FC01EC5BFF4F3491FC01E65CFF4F249173
:1004F000FC01E05DFF4FE491EE23B9F0332329F0D6
:10050000323001F198F43130C9F0F0E0EE0FFF1F06
:10051000E65DFF4FA591B4918FB7F894EC9161110E
:1005200014C020952E232C938FBF0895333011F0E3
:10053000343059F78CB58F7D8CBDE7CF8AB58F7776
:100540008ABDE3CF8AB58F7DFBCF2E2BECCF0F93E7
:100550001F93CF93DF931092F5001092F40088EE72
:1005600093E0A0E0B0E08093F6009093F700A093B2
:10057000F800B093F9008DE690E09093F30080933B
:10058000F200109209011092080110920B011092D2
:100590000A0110920D0110920C0110920F0110929D
:1005A0000E01609110016E7F6D7F60931001669562
:1005B000617081E0682782E092DF4CE350E0FA014D
:1005C000649182E390E0FC012491222399F030E0D1
:1005D000220F331FF901EC5DFF4FA591B491F90192
:1005E000E65DFF4F259134912FB7F8943C91632B32
:1005F0006C932FBFFA01449140930201FC01849156
:10060000E82FF0E0EE0FFF1FE65DFF4F859194911C
:1006100090930401809303010BE310E0F80124910F
:10062000C1E3D0E0FE0184918823C9F090E0880FF7
:10063000991FFC01EC5DFF4FA591B491FC01E65DB3
:10064000FF4F459154913FB7F8949C91822F80952C
:1006500098239C93FA019081892380833FBF8091E6
:10066000100181FD03C061E081E039DF81E080930A
:10067000FE00F80104910093FF00FE01C491EC2FED
:10068000F0E0EE0FFF1FE25EFF4F85919491909393
:10069000010180930001DF91CF911F910F91089587
:1006A00078948AB582608ABD8AB581608ABD83B735
:1006B000826083BF83B7816083BF89B7826089BF4F
:1006C00080B7826080BF80B7816080BF329A319AE4
:1006D0003098379A85B7846885BF479AB898C09A8A
:1006E00084B7877F84BF81B5886181BD83E181BD87
:1006F00081B5806481BDB09902C0D4DDFECF109277
:100700000D0110920C0110920B0110920A0110922F
:100710000901109208018DEC90E090930F018093F5
:100720000E013091FE00353020F545E550E0509344
:100730000901409308014BEC50E050930B014093AA
:100740000A0140E950E050930D0140930C012BB792
:1007500020622BBF45E350E0509306014093050112
:1007600021E001C0220F3A95EAF720930701019793
:10077000F1F780910C0190910D01892B49F1E091E5
:10078000E700F091E80020E0E23FF20709F130973E
:1007900039F0A389B4899C918589809589238C93AC
:1007A000809110018E7F809310011092E5001092CD
:1007B000E60082EF90E09093E8008093E700E091FC
:1007C0000501F0910601808190910701892B8083BA
:1007D00089E890E075DD84EF91E03EDD8EE890E001
:1007E0006FDD88EC90E038DD82EF90E0FADC892B59
:1007F00021F082EF90E00CDDF7CF84E990E060DD3E
:100800008AE090E029DD1092A4001092A300C0912C
:10081000A300D091A400C430D10590F482EF90E001
:10082000F7DCFE01E156FF4F813644F087558083A7
:100830002196D093A400C093A300E9CF8053F7CFB3
:1008400020919F0030E094E0220F331F9A95E1F74A
:100850008091A000280F311D44E0220F331F4A95DC
:10086000E1F78091A100820F932F911D54E0880F32
:10087000991F5A95E1F72091A200820F911D909344
:100880009E0080939D0002970CF46BC090E080E086
:10089000C5D190939C0080939B0002978C3F914020
:1008A00090F082E090E090939C0080939B0062E047
:1008B00070E090E080E0B7D170E060E080919B0054
:1008C00090919C00B0D1C0919B00D0919C00CE0132
:1008D000A5D19093A4008093A3008538934070F035
:1008E0001092A4001092A300BE016E5F7F4F709320
:1008F0009C0060939B0090E080E095D16091A30004
:100900007091A40090E080E061157105810591056A
:1009100009F07BD16091A3007091A4006F5F7F4FBD
:100920007093A4006093A30080919B0090919C0021
:100930007AD1C0919D00D0919E00C135D10560F063
:1009400088E290E0909363008093620083EA90E0F5
:10095000909361008093600088EC90E07DDC8C2FA8
:10096000BBDC84E890E0ACDCCAE0D0E080EC482E50
:1009700082E1582E612C712C17E80CE180919A00CD
:10098000811118C080919D0090919E00B0994CC03B
:10099000029708F447C0809162009091630001962D
:1009A0006C01F12CE12CE1F1E2D0A701960175D1A7
:1009B000862F92DC77DC209789F580B58E7F80BD0D
:1009C00016B907B981E090E047DC369A349BFECF38
:1009D000349A64B175B190E080E009D29B01AC011A
:1009E0006DEC7CEC8CE894E49AD16B017C012CECEE
:1009F0003CEC4CE650E48FD118160CF44EC026E6C1
:100A000036E646E650E4C701B60185D118160CF467
:100A10003FC081E080939A00C0E9D1E02197AECF3A
:100A200080E0C7CF81E0C5CF029720F2A0D0A3011C
:100A3000920133D1613071058105910509F0BACF7A
:100A4000C0906000D09061008FEFC81AD80AF12CD6
:100A5000E12C80906200909063002FEF821A920A3E
:100A6000B12CA12C8C149D04AE04BF047CF4C818D6
:100A7000D908EA08FB0831F07AD0A70196010DD118
:100A80006B017C018C0C9D1CAE1CBF1C882D91CF72
:100A9000809160008F5F20DCBFCF10929A00BCCFA6
:100AA0008DE690E09093F3008093F2008091E70050
:100AB0009091E800825F904071F4E0910501F0911F
:100AC000060190818091070180958923808310928F
:100AD000E8001092E70008958F929F92AF92BF9224
:100AE000CF92DF92EF92FF92CF93DF93EC01688178
:100AF00079818A819B81611571058105910521F4B8
:100B000064E279ED8BE597E02DE133EF41E050E0D1
:100B1000C4D049015A0127EA31E440E050E0A4D0B2
:100B20006B017C012CEE34EF4FEF5FEFC501B40198
:100B30009BD0C60ED71EE81EF91EF7FE06C081E048
:100B4000C81AD108E10880E8F80AC882D982EA8286
:100B5000FB82C701B6019F77DF91CF91FF90EF90A5
:100B6000DF90CF90BF90AF909F908F9008958F921D
:100B70009F92AF92BF92CF92DF92EF92FF926091DD
:100B80006500709166008091670090916800611522
:100B900071058105910521F464E279ED8BE597E01B
:100BA0002DE133EF41E050E078D049015A0127EAC6
:100BB00031E440E050E058D06B017C012CEE34EF82
:100BC0004FEF5FEFC501B4014FD0C60ED71EE81E30
:100BD000F91EF7FE06C081E0C81AD108E10880E8D6
:100BE000F80AC0926500D0926600E0926700F09229
:100BF0006800C701B6019F77FF90EF90DF90CF901C
:100C0000BF90AF909F908F90089560936500709310
:100C1000660080936700909368000895A8E1B0E0B3
:100C200042E050E005C012D0272F11C0DC01CB01FB
:100C3000FC01E199FECF06C0FFBBEEBBE09A319606
:100C40000DB20D9241505040B8F70895262FE1990A
:100C5000FECF1CBA9FBB8EBB2DBB0FB6F894E29A99
:100C6000E19A0FBE01960895EE27FF27AA27BB271A
:100C700008C0A20FB31FE41FF51F220F331F441F2C
:100C8000551F969587957795679598F37040A9F7C6
:100C9000009799F7BD01CF010895052E97FB16F433
:100CA00000940FD057FD05D014D007FC02D046F4B5
:100CB00008C050954095309521953F4F4F4F5F4F5D
:100CC000089590958095709561957F4F8F4F9F4FB8
:100CD0000895A1E21A2EAA1BBB1BFD010DC0AA1F7D
:100CE000BB1FEE1FFF1FA217B307E407F50720F095
:100CF000A21BB30BE40BF50B661F771F881F991F10
:100D00001A9469F760957095809590959B01AC0158
:100D1000BD01CF010895A8D008F481E008950CD05A
:100D2000DEC0D6D040F0CDD030F021F45F3F19F0D6
:100D3000BFC0511108C1C2C0E3D098F39923C9F3D1
:100D40005523B1F3951B550BBB27AA2762177307D1
:100D5000840738F09F5F5F4F220F331F441FAA1F85
:100D6000A9F333D00E2E3AF0E0E830D09150504045
:100D7000E695001CCAF729D0FE2F27D0660F771FF3
:100D8000881FBB1F261737074807AB07B0E809F0D5
:100D9000BB0B802DBF01FF2793585F4F2AF09E3F6A
:100DA000510568F085C0CFC05F3FECF3983EDCF39F
:100DB000869577956795B795F7959F5FC9F7880FE3
:100DC000911D9695879597F90895E1E0660F771F35
:100DD000881FBB1F621773078407BA0720F0621BC6
:100DE000730B840BBA0BEE1F88F7E0950895E89417
:100DF00009C097FB3EF490958095709561957F4F63
:100E00008F4F9F4F9923A9F0F92F96E9BB27939510
:100E1000F695879577956795B795F111F8CFFAF420
:100E2000BB0F11F460FF1BC06F5F7F4F8F4F9F4F51
:100E300016C0882311F096E911C0772321F09EE8AF
:100E4000872F762F05C0662371F096E8862F70E015
:100E500060E02AF09A95660F771F881FDAF7880FEF
:100E60009695879597F90895990F0008550FAA0B45
:100E7000E0E8FEEF16161706E807F907C0F01216AD
:100E80001306E407F50798F0621B730B840B950BB0
:100E900039F40A2661F0232B242B252B21F4089505
:100EA0000A2609F4A140A6958FEF811D811D0895A2
:100EB00097F99F6780E870E060E008959FEF80EC0D
:100EC000089500240A9416161706180609060895B0
:100ED00000240A9412161306140605060895092E16
:100EE0000394000C11F4882352F0BB0F40F4BF2B85
:100EF00011F460FF04C06F5F7F4F8F4F9F4F0895C5
:100F000057FD9058440F551F59F05F3F71F04795BA
:100F1000880F97FB991F61F09F3F79F0879508959F
:100F2000121613061406551FF2CF4695F1DF08C0BE
:100F3000161617061806991FF1CF869571056105DB
:100F400008940895E894BB2766277727CB0197F983
:100F5000089597FB072E16F4009406D077FD08D06D
:100F60000BD007FC05D03EF4909581959F4F0895D6
:100F7000709561957F4F0895AA1BBB1B51E107C077
:100F8000AA1FBB1FA617B70710F0A61BB70B881F19
:100F9000991F5A95A9F780959095BC01CD010895A8
:100FA000EE0FFF1F0590F491E02D099410E0C8E2C8
:100FB000D0E003C0FE01F4DF2196C932D107D1F79A
:040FC000F894FFCFD3
:100FC4004F001E0001010000000000000095004FCA
:100FD4000029019400F10008017C007E0306007ED4
:100FE400040301007E020AEF007E020CEF007E0380
:0A0FF4001104EF007E0249EF000037
:00000001FF
